:020000040800F2
:1000000000800120A1080008F1080008F10800089C
:10001000F1080008F1080008F108000800000000DD
:10002000000000000000000000000000F1080008CF
:10003000F108000800000000F1080008F1080008BD
:1000400000000000F1080008F1080008F1080008AD
:10005000F1080008F1080008F1080008F10800089C
:10006000F1080008F1080008F1080008000000008D
:100070000000000000000000000000000000000080
:100080000000000000000000F1080008000000006F
:10009000000000000000000000000000F10800085F
:1000A000F1080008F1080008F1080008F10800084C
:1000B000F1080008F1080008F1080008F10800083C
:1000C000F1080008F1080008F1080008F10800082C
:1000D000F1080008F1080008F1080008000000001D
:1000E000F1080008F1080008F1080008000000000D
:1000F0000000000000000000000000000000000000
:1001000000000000F1080008F1080008F1080008EC
:1001100000000000000000000000000000000000DF
:1001200000000000000000000000000000000000CF
:1001300000000000000000000000000000000000BF
:10014000000000000000000000000000F1080008AE
:10015000000000000000000000000000F10800089E
:10016000F1080008F108000800000000000000008D
:10017000000000000000000000000000000000007F
:1001800000000000F108000800000000000000006E
:04019000F10800086A
:1001940010B5054C237833B9044B13B10448AFF3BD
:1001A40000800123237010BD000000200000000027
:1001B4003C09000808B5034B1BB103490348AFF3DE
:1001C400008008BD00000000040000203C09000875
:1001D40080B483B000AF0346FB710B46BB7113467A
:1001E4007B71FB79072B73D801A252F823F000BF6F
:1001F400150200082D020008450200085D020008EF
:10020400750200088D020008A5020008BD0200085E
:10021400334B1B687979BA79520001FA02F211461C
:100224002F4A0B43136054E02E4B1B687979BA793B
:10023400520001FA02F211462A4A0B43136048E0C5
:10024400294B1B687979BA79520001FA02F21146F6
:10025400254A0B4313603CE0244B1B687979BA7937
:10026400520001FA02F21146204A0B43136030E0B7
:100274001F4B1B687979BA79520001FA02F21146D0
:100284001B4A0B43136024E01A4B1B687979BA7933
:10029400520001FA02F21146164A0B43136018E0A9
:1002A400154B1B687979BA79520001FA02F21146AA
:1002B400114A0B4313600CE0104B1B687979BA792F
:1002C400520001FA02F211460C4A0B43136000E09B
:1002D40000BF00BF0C37BD465DF8047B704700BF0C
:1002E400000002400004024000080240000C0240EA
:1002F400001002400014024000180240001C02409A
:1003040080B483B000AF0346FB710B46BB71134648
:100314007B71FB79072B6BD801A252F823F000BF45
:10032400450300085B030008710300088703000805
:100334009D030008B3030008C9030008DF03000895
:100344002F4B1B687979BA7901FA02F211462C4ACB
:100354000B4313604DE02B4B1B687979BA7901FA92
:1003640002F21146274A0B43136042E0264B1B68F6
:100374007979BA7901FA02F21146234A0B431360E0
:1003840037E0224B1B687979BA7901FA02F21146F7
:100394001E4A0B4313602CE01D4B1B687979BA7914
:1003A40001FA02F211461A4A0B43136021E0194B79
:1003B4001B687979BA7901FA02F21146154A0B439E
:1003C400136016E0144B1B687979BA7901FA02F2CA
:1003D4001146114A0B4313600BE0104B1B687979EB
:1003E400BA7901FA02F211460C4A0B43136000E099
:1003F40000BF00BF0C37BD465DF8047B704700BFEB
:10040400040002400404024004080240040C0240B8
:10041400041002400414024004180240041C024068
:1004240080B483B000AF0346FB710B46BB71134627
:100434007B71FB79072B73D801A252F823F000BF1C
:10044400650400087D04000895040008AD04000854
:10045400C5040008DD040008F50400080D050008C3
:10046400334B1B687979BA79520001FA02F21146CA
:100474002F4A0B43136054E02E4B1B687979BA79E9
:10048400520001FA02F211462A4A0B43136048E073
:10049400294B1B687979BA79520001FA02F21146A4
:1004A400254A0B4313603CE0244B1B687979BA79E5
:1004B400520001FA02F21146204A0B43136030E065
:1004C4001F4B1B687979BA79520001FA02F211467E
:1004D4001B4A0B43136024E01A4B1B687979BA79E1
:1004E400520001FA02F21146164A0B43136018E057
:1004F400154B1B687979BA79520001FA02F2114658
:10050400114A0B4313600CE0104B1B687979BA79DC
:10051400520001FA02F211460C4A0B43136000E048
:1005240000BF00BF0C37BD465DF8047B704700BFB9
:10053400080002400804024008080240080C024077
:10054400081002400814024008180240081C024027
:1005540080B483B000AF0346FB710B46BB711346F6
:100564007B717B79012B67D1FB79072B00F2D28059
:1005740001A252F823F000BF9D050008B105000850
:10058400C5050008D9050008ED05000801060008A6
:100594001506000829060008634B1A68BB79012177
:1005A40001FA03F3604913430B60B6E05F4B1A682A
:1005B400BB79012101FA03F35C4913430B60ACE0FE
:1005C4005B4B1A68BB79012101FA03F358491343C1
:1005D4000B60A2E0574B1A68BB79012101FA03F3BF
:1005E400544913430B6098E0534B1A68BB790121BB
:1005F40001FA03F3504913430B608EE04F4B1A6822
:10060400BB79012101FA03F34C4913430B6084E0E5
:100614004B4B1A68BB79012101FA03F34849134390
:100624000B607AE0474B1A68BB79012101FA03F3A6
:10063400444913430B6070E0FB79072B6CD801A28B
:1006440052F823F0690600087F06000895060008A2
:10065400AB060008C1060008D7060008ED0600082E
:1006640003070008304B1A68BB79012101FA03F330
:10067400DB432D4913400B604FE02C4B1A68BB79C8
:10068400012101FA03F3DB43284913400B6044E0E2
:10069400274B1A68BB79012101FA03F3DB43244990
:1006A40013400B6039E0234B1A68BB79012101FA2E
:1006B40003F3DB431F4913400B602EE01E4B1A6803
:1006C400BB79012101FA03F3DB431B4913400B609F
:1006D40023E01A4B1A68BB79012101FA03F3DB43C7
:1006E400164913400B6018E0154B1A68BB790121B9
:1006F40001FA03F3DB43124913400B600DE0114B85
:100704001A68BB79012101FA03F3DB430D49134055
:100714000B6002E000BF00E000BF00BF0C37BD4625
:100724005DF8047B704700BF1400024014040240CB
:1007340014080240140C0240141002401414024025
:1007440014180240141C024080B483B000AF034666
:100754000A46FB711346BB71FB79042B3ED801A2F8
:1007640052F823F07D07000891070008A507000848
:10077400B9070008CD0700081B4B1A68BB79012193
:1007840001FA03F3184913430B6027E0174B1A6867
:10079400BB79012101FA03F3144913430B601DE0F3
:1007A400134B1A68BB79012101FA03F3104913436F
:1007B4000B6013E00F4B1A68BB79012101FA03F3B4
:1007C4000C4913430B6009E00B4B1A68BB790121F8
:1007D40001FA03F3084913430B6000BF00BF0C3751
:1007E400BD465DF8047B704730380240343802401F
:1007F40038380240603802406438024080B582B024
:1008040000AF00210020FFF79FFF012200210020FC
:10081400FFF7DEFC012201210020FFF7D9FC0022B2
:1008240000210020FFF76CFD002201210020FFF7CA
:1008340067FD002200210020FFF7F2FD00220121C4
:100844000020FFF7EDFD012200210020FFF780FECC
:10085400002201210020FFF77BFE00237B6002E0E1
:100864007B6801337B607B680B4A9342F8D9002292
:1008740000210020FFF76CFE012201210020FFF778
:1008840067FE00237B6002E07B6801337B607B684A
:10089400014A9342F8D9D6E71FA107000D488546BF
:1008A400AFF300800C480D490D4A002302E0D458F0
:1008B400C4500433C4188C42F9D30A4A0A4C0023A6
:1008C40001E013600432A242FBD300F011F8FFF7F9
:1008D40095FFFEE7008001200000002000000020BA
:1008E4005C090008000000201C000020FEE7000056
:1008F40070B50D4D0D4C641BA4100026A64209D101
:100904000B4D0C4C00F018F8641BA4100026A642F2
:1009140005D170BD55F8043B98470136EEE755F80C
:10092400043B98470136F2E75409000854090008CB
:100934005409000858090008F8B500BFF8BC08BC01
:100944009E467047F8B500BFF8BC08BC9E46704789
:04095400B9010008DD
:0409580095010008FD
:04000005080008A146
:00000001FF
