:020000040800F2
:1000000000800120650D0008B50D0008B50D000841
:10001000B50D0008B50D0008B50D00080000000082
:10002000000000000000000000000000B50D000806
:10003000B50D000800000000B50D0008210C0008F7
:1000400000000000B50D0008B50D0008B50D000852
:10005000B50D0008B50D0008D90C0008B50D000855
:10006000B50D0008B50D0008B50D00080000000032
:100070000000000000000000000000000000000080
:100080000000000000000000B50D000800000000A6
:10009000000000000000000000000000B50D000896
:1000A000B50D0008B50D0008B50D0008B50D000828
:1000B000B50D0008B50D0008B50D0008B50D000818
:1000C000B50D0008B50D0008B50D0008B50D000808
:1000D000B50D0008B50D0008B50D000800000000C2
:1000E000B50D0008B50D0008B50D000800000000B2
:1000F0000000000000000000000000000000000000
:1001000000000000B50D0008B50D0008B50D000891
:1001100000000000000000000000000000000000DF
:1001200000000000000000000000000000000000CF
:1001300000000000000000000000000000000000BF
:10014000000000000000000000000000B50D0008E5
:10015000000000000000000000000000B50D0008D5
:10016000B50D0008B50D00080000000000000000FB
:10017000000000000000000000000000000000007F
:1001800000000000B50D00080000000000000000A5
:04019000B50D0008A1
:1001940010B5054C237833B9044B13B10448AFF3BD
:1001A40000800123237010BD000000200000000027
:1001B400000E000808B5034B1BB103490348AFF315
:1001C400008008BD0000000004000020000E0008AC
:1001D40080B483B000AF0346FB71074B1A68FB7908
:1001E400012101FA03F3044913430B6000BF0C37E8
:1001F400BD465DF8047B7047003C014080B483B089
:1002040000AF03460A46FB711346BB71BB79022B50
:100214002ED0022B3FDC002B02D0012B14D03AE06D
:10022400204B1A68FB79012101FA03F31D4913439A
:100234000B601D4BDA68FB79012101FA03F3DB4300
:1002440019491340CB6026E0184B1A68FB79012149
:1002540001FA03F3154913430B60134B9A68FB79B6
:10026400012101FA03F3DB430F4913408B6012E0D1
:100274000E4B1A68FB79012101FA03F30B4913436E
:100284000B60084B1A68FB79012101FA03F3054955
:1002940013430B6000BF00BF0C37BD465DF8047B01
:1002A400704700BF083C0140003C01400C3C014049
:1002B40080B483B000AF03460A46FB711346BB719A
:1002C400FB79032B19D83E4B1B68FA7992000F2156
:1002D40001FA02F2D2B2D2431146394A0B401360FA
:1002E400374B1B68B979FA79920001FA02F2D2B25B
:1002F4001146334A0B4313605CE0FB79072B1CD88F
:10030400FB79043BFB712F4B1B68FA7992000F2198
:1003140001FA02F2D2B2D24311462A4A0B401360C8
:10032400284B1B68B979FA79920001FA02F2D2B229
:100334001146244A0B4313603CE0FB790B2B1CD879
:10034400FB79083BFB71204B1B68FA7992000F2163
:1003540001FA02F2D2B2D24311461B4A0B40136097
:10036400194B1B68B979FA79920001FA02F2D2B2F8
:100374001146154A0B4313601CE0FB790F2B19D867
:10038400FB790C3BFB71114B1B68FA7992000F212E
:1003940001FA02F2D24311460C4A0B4013600B4B94
:1003A4001B68B979FA79920001FA02F21146074AF8
:1003B4000B43136000BF0C37BD465DF8047B7047E8
:1003C400083801400C38014010380140143801400D
:1003D40080B483B000AF0346FB710B46BB71134678
:1003E4007B71FB79072B73D801A252F823F000BF6D
:1003F400150400082D040008450400085D040008E5
:10040400750400088D040008A5040008BD04000854
:10041400334B1B687979BA79520001FA02F211461A
:100424002F4A0B43136054E02E4B1B687979BA7939
:10043400520001FA02F211462A4A0B43136048E0C3
:10044400294B1B687979BA79520001FA02F21146F4
:10045400254A0B4313603CE0244B1B687979BA7935
:10046400520001FA02F21146204A0B43136030E0B5
:100474001F4B1B687979BA79520001FA02F21146CE
:100484001B4A0B43136024E01A4B1B687979BA7931
:10049400520001FA02F21146164A0B43136018E0A7
:1004A400154B1B687979BA79520001FA02F21146A8
:1004B400114A0B4313600CE0104B1B687979BA792D
:1004C400520001FA02F211460C4A0B43136000E099
:1004D40000BF00BF0C37BD465DF8047B704700BF0A
:1004E400000002400004024000080240000C0240E8
:1004F400001002400014024000180240001C024098
:1005040080B483B000AF0346FB710B46BB71134646
:100514007B71FB79072B6BD801A252F823F000BF43
:10052400450500085B0500087105000887050008FB
:100534009D050008B3050008C9050008DF0500088B
:100544002F4B1B687979BA7901FA02F211462C4AC9
:100554000B4313604DE02B4B1B687979BA7901FA90
:1005640002F21146274A0B43136042E0264B1B68F4
:100574007979BA7901FA02F21146234A0B431360DE
:1005840037E0224B1B687979BA7901FA02F21146F5
:100594001E4A0B4313602CE01D4B1B687979BA7912
:1005A40001FA02F211461A4A0B43136021E0194B77
:1005B4001B687979BA7901FA02F21146154A0B439C
:1005C400136016E0144B1B687979BA7901FA02F2C8
:1005D4001146114A0B4313600BE0104B1B687979E9
:1005E400BA7901FA02F211460C4A0B43136000E097
:1005F40000BF00BF0C37BD465DF8047B704700BFE9
:10060400040002400404024004080240040C0240B6
:10061400041002400414024004180240041C024066
:1006240080B483B000AF0346FB710B46BB71134625
:100634007B71FB79072B73D801A252F823F000BF1A
:10064400650600087D06000895060008AD0600084A
:10065400C5060008DD060008F50600080D070008B9
:10066400334B1B687979BA79520001FA02F21146C8
:100674002F4A0B43136054E02E4B1B687979BA79E7
:10068400520001FA02F211462A4A0B43136048E071
:10069400294B1B687979BA79520001FA02F21146A2
:1006A400254A0B4313603CE0244B1B687979BA79E3
:1006B400520001FA02F21146204A0B43136030E063
:1006C4001F4B1B687979BA79520001FA02F211467C
:1006D4001B4A0B43136024E01A4B1B687979BA79DF
:1006E400520001FA02F21146164A0B43136018E055
:1006F400154B1B687979BA79520001FA02F2114656
:10070400114A0B4313600CE0104B1B687979BA79DA
:10071400520001FA02F211460C4A0B43136000E046
:1007240000BF00BF0C37BD465DF8047B704700BFB7
:10073400080002400804024008080240080C024075
:10074400081002400814024008180240081C024025
:1007540080B483B000AF0346FB710B46BB711346F4
:100764007B71FB79072B73D801A252F823F000BFE9
:1007740095070008AD070008C5070008DD07000855
:10078400F50700080D080008250800083D080008C2
:10079400334B1B687979BA79520001FA02F2114697
:1007A4002F4A0B43136054E02E4B1B687979BA79B6
:1007B400520001FA02F211462A4A0B43136048E040
:1007C400294B1B687979BA79520001FA02F2114671
:1007D400254A0B4313603CE0244B1B687979BA79B2
:1007E400520001FA02F21146204A0B43136030E032
:1007F4001F4B1B687979BA79520001FA02F211464B
:100804001B4A0B43136024E01A4B1B687979BA79AD
:10081400520001FA02F21146164A0B43136018E023
:10082400154B1B687979BA79520001FA02F2114624
:10083400114A0B4313600CE0104B1B687979BA79A9
:10084400520001FA02F211460C4A0B43136000E015
:1008540000BF00BF0C37BD465DF8047B704700BF86
:100864000C0002400C0402400C0802400C0C024034
:100874000C1002400C1402400C1802400C1C0240E4
:1008840080B483B000AF0346FB710B46BB711346C3
:100894007B717B79012B67D1FB79072B00F2D28026
:1008A40001A252F823F000BFCD080008E1080008B7
:1008B400F5080008090900081D09000831090008A5
:1008C4004509000859090008634B1A68BB790121DE
:1008D40001FA03F3604913430B60B6E05F4B1A68F7
:1008E400BB79012101FA03F35C4913430B60ACE0CB
:1008F4005B4B1A68BB79012101FA03F3584913438E
:100904000B60A2E0574B1A68BB79012101FA03F38B
:10091400544913430B6098E0534B1A68BB79012187
:1009240001FA03F3504913430B608EE04F4B1A68EE
:10093400BB79012101FA03F34C4913430B6084E0B2
:100944004B4B1A68BB79012101FA03F3484913435D
:100954000B607AE0474B1A68BB79012101FA03F373
:10096400444913430B6070E0FB79072B6CD801A258
:1009740052F823F099090008AF090008C5090008D6
:10098400DB090008F1090008070A00081D0A00082D
:10099400330A0008304B1A68BB79012101FA03F3CA
:1009A400DB432D4913400B604FE02C4B1A68BB7995
:1009B400012101FA03F3DB43284913400B6044E0AF
:1009C400274B1A68BB79012101FA03F3DB4324495D
:1009D40013400B6039E0234B1A68BB79012101FAFB
:1009E40003F3DB431F4913400B602EE01E4B1A68D0
:1009F400BB79012101FA03F3DB431B4913400B606C
:100A040023E01A4B1A68BB79012101FA03F3DB4393
:100A1400164913400B6018E0154B1A68BB79012185
:100A240001FA03F3DB43124913400B600DE0114B51
:100A34001A68BB79012101FA03F3DB430D49134022
:100A44000B6002E000BF00E000BF00BF0C37BD46F2
:100A54005DF8047B704700BF140002401404024098
:100A640014080240140C02401410024014140240F2
:100A740014180240141C024080B483B000AF034633
:100A8400FB71FB7903F01F03012202FA03F1064A0A
:100A9400FB795B09DBB2403342F8231000BF0C370B
:100AA400BD465DF8047B704700E100E080B483B08C
:100AB40000AF0346FB71FB791F2B06D8FB79124A62
:100AC400012101FA03F3136018E0FB793F2B09D8E5
:100AD400FB79203BFB71FB790C4A012101FA03F3FA
:100AE40013600BE0FB795A2B08D8FB79403BFB7170
:100AF400FB79074A012101FA03F3136000BF0C37A5
:100B0400BD465DF8047B704700E100E004E200E0CC
:100B140008E200E080B483B000AF03460A46FB71EC
:100B24001346BB71FB79042B3ED801A252F823F083
:100B3400490B00085D0B0008710B0008850B0008C9
:100B4400990B00081B4B1A68BB79012101FA03F3C6
:100B5400184913430B6027E0174B1A68BB7901212E
:100B640001FA03F3144913430B601DE0134B1A6895
:100B7400BB79012101FA03F3104913430B6013E01D
:100B84000F4B1A68BB79012101FA03F30C49134393
:100B94000B6009E00B4B1A68BB79012101FA03F3DE
:100BA400084913430B6000BF00BF0C37BD465DF816
:100BB400047B7047303802403438024038380240F1
:100BC400603802406438024080B483B000AF78607B
:100BD400114A7B685360104B1B680F4A43F00103B2
:100BE400136000BF0C4B1B681B0C03F00103002BAC
:100BF400F8D0094B1B68084A23F001031360064B25
:100C040000225A60044B00229A6000BF0C37BD4694
:100C14005DF8047B704700BF10E000E080B500AFD2
:100C24000D4B1B6898470D4B1B78002B0BD10C4BBD
:100C34001B680B4A23F001031360094B00229A60DE
:100C4400074B00225A60064B1B68054A23F4803385
:100C5400136000BF80BD00BF1C00002028000020DE
:100C640010E000E080B500AF00210020FFF752FF44
:100C740000F058F80D4800F01DF80020FFF7A8FA1E
:100C840000210020FFF714FB00210020FFF7B6FA33
:100C94000620FFF70BFF064B1B68012BFBD1044B0F
:100CA40000221A600620FFF7E7FEF4E7FD0C0008B7
:100CB4002400002080B483B000AF7860044A7B68CD
:100CC400136000BF0C37BD465DF8047B704700BF5E
:100CD4002000002080B500AF054B1B689847054BEA
:100CE4005B69044A43F00103536100BF80BD00BF48
:100CF40020000020003C014080B500AF0122022109
:100D04000020FFF7BDFD0648FFF75EFF0122022128
:100D14000020FFF7B5FD0248FFF756FF00BF80BD76
:100D240040420F0080B500AF002200210020FFF7F1
:100D34004FFB112200210020FFF70AFD01220221AE
:100D44000020FFF745FB002202210020FFF7D8FB1B
:100D5400002202210020FFF763FC00BF80BD0000D9
:100D64000D488546AFF300800C480D490D4A002319
:100D740002E0D458C4500433C4188C42F9D30A4A4C
:100D84000A4C002301E013600432A242FBD300F0BA
:100D940011F8FFF767FFFEE7008001200000002044
:100DA40000000020200E0008000000202C0000207D
:100DB400FEE7000070B50D4D0D4C641BA410002619
:100DC400A64209D10B4D0C4C00F018F8641BA4107A
:100DD4000026A64205D170BD55F8043B984701365C
:100DE400EEE755F8043B98470136F2E7180E000881
:100DF400180E0008180E00081C0E0008F8B500BFF5
:100E0400F8BC08BC9E467047F8B500BFF8BC08BCE7
:040E14009E4670473F
:040E1800B901000814
:040E1C009501000834
:0400000508000D657D
:00000001FF
