:020000040800F2
:1000000000800120A5070008F5070008F507000893
:10001000F5070008F5070008F507000800000000D4
:10002000000000000000000000000000F5070008CC
:10003000F507000800000000F5070008F5070008B4
:1000400000000000F5070008F5070008F5070008A4
:10005000F5070008F5070008F5070008F507000890
:10006000F5070008F5070008F50700080000000084
:100070000000000000000000000000000000000080
:100080000000000000000000F5070008000000006C
:10009000000000000000000000000000F50700085C
:1000A000F5070008F5070008F5070008F507000840
:1000B000F5070008F5070008F5070008F507000830
:1000C000F5070008F5070008F5070008F507000820
:1000D000F5070008F5070008F50700080000000014
:1000E000F5070008F5070008F50700080000000004
:1000F0000000000000000000000000000000000000
:1001000000000000F5070008F5070008F5070008E3
:1001100000000000000000000000000000000000DF
:1001200000000000000000000000000000000000CF
:1001300000000000000000000000000000000000BF
:10014000000000000000000000000000F5070008AB
:10015000000000000000000000000000F50700089B
:10016000F5070008F5070008000000000000000087
:10017000000000000000000000000000000000007F
:1001800000000000F507000800000000000000006B
:04019000F507000867
:1001940010B5054C237833B9044B13B10448AFF3BD
:1001A40000800123237010BD000000200000000027
:1001B4004008000808B5034B1BB103490348AFF3DB
:1001C400008008BD00000000040000204008000872
:1001D40080B483B000AF0346FB710B46BB7113467A
:1001E4007B71FB79072B5BD801A252F823F000BF87
:1001F400150200082D020008450200085D020008EF
:1002040075020008A5020008A50200088D02000876
:10021400274B1B687979BA79520001FA02F2114628
:10022400234A0B4313603CE0224B1B687979BA796B
:10023400520001FA02F211461E4A0B43136030E0E9
:100244001D4B1B687979BA79520001FA02F2114602
:10025400194A0B43136024E0184B1B687979BA7967
:10026400520001FA02F21146144A0B43136018E0DB
:10027400134B1B687979BA79520001FA02F21146DC
:100284000F4A0B4313600CE00E4B1B687979BA7963
:10029400520001FA02F211460A4A0B43136000E0CD
:1002A40000BF00BF0C37BD465DF8047B704700BF3C
:1002B400000002400004024000080240000C02401A
:1002C40000100240001C024080B483B000AF03461B
:1002D400FB710B46BB7113467B71FB79072B55D819
:1002E40001A252F823F000BF0D0300082303000805
:1002F400390300084F030008650300089103000850
:10030400910300087B030008244B1B687979BA79B0
:1003140001FA02F21146214A0B43136037E0204BE5
:100324001B687979BA7901FA02F211461C4A0B4327
:1003340013602CE01B4B1B687979BA7901FA02F23D
:100344001146184A0B43136021E0174B1B68797957
:10035400BA7901FA02F21146134A0B43136016E00C
:10036400124B1B687979BA7901FA02F211460F4AE5
:100374000B4313600BE00E4B1B687979BA7901FAD1
:1003840002F211460A4A0B43136000E000BF00BFAB
:100394000C37BD465DF8047B704700BF0400024083
:1003A4000404024004080240040C02400410024009
:1003B400041C024080B483B000AF0346FB710B46BB
:1003C400BB7113467B71FB79072B5BD801A252F8F2
:1003D40023F000BFF90300081104000829040008F1
:1003E400410400085904000889040008890400082D
:1003F40071040008274B1B687979BA79520001FA15
:1004040002F21146234A0B4313603CE0224B1B6863
:100414007979BA79520001FA02F211461E4A0B4365
:10042400136030E01D4B1B687979BA79520001FAE8
:1004340002F21146194A0B43136024E0184B1B685F
:100444007979BA79520001FA02F21146144A0B433F
:10045400136018E0134B1B687979BA79520001FADA
:1004640002F211460F4A0B4313600CE00E4B1B685B
:100474007979BA79520001FA02F211460A4A0B4319
:10048400136000E000BF00BF0C37BD465DF8047B7D
:10049400704700BF080002400804024008080240F8
:1004A400080C024008100240081C024080B483B0CB
:1004B40000AF0346FB710B46BB7113467B717B791E
:1004C400012B53D1FB79072B00F2A88001A252F82B
:1004D40023F000BFF90400080D05000821050008F9
:1004E4003505000849050008210600082106000812
:1004F4005D0500084E4B1A68BB79012101FA03F32C
:100504004B4913430B608CE04A4B1A68BB790121B9
:1005140001FA03F3474913430B6082E0464B1A6820
:10052400BB79012101FA03F3434913430B6078E0DB
:10053400424B1A68BB79012101FA03F33F49134383
:100544000B606EE03E4B1A68BB79012101FA03F39C
:100554003B4913430B6064E03A4B1A68BB790121B1
:1005640001FA03F3374913430B605AE0FB79072B75
:1005740056D801A252F823F09D050008B3050008DF
:10058400C9050008DF050008F50500082506000870
:10059400250600080B060008254B1A68BB790121C3
:1005A40001FA03F3DB43224913400B6039E0214B8A
:1005B4001A68BB79012101FA03F3DB431D49134097
:1005C4000B602EE01C4B1A68BB79012101FA03F37E
:1005D400DB43194913400B6023E0184B1A68BB79BD
:1005E400012101FA03F3DB43144913400B6018E0C3
:1005F400134B1A68BB79012101FA03F3DB43104959
:1006040013400B600DE00F4B1A68BB79012101FA0E
:1006140003F3DB430B4913400B6002E000BF00E02F
:1006240000BF00BF0C37BD465DF8047B704700BFB8
:10063400140002401404024014080240140C024046
:1006440014100240141C024080B483B000AF03466F
:100654000A46FB711346BB71FB79042B3ED801A2F9
:1006640052F823F07D06000891060008A50600084C
:10067400B9060008CD0600081B4B1A68BB79012196
:1006840001FA03F3184913430B6027E0174B1A6868
:10069400BB79012101FA03F3144913430B601DE0F4
:1006A400134B1A68BB79012101FA03F31049134370
:1006B4000B6013E00F4B1A68BB79012101FA03F3B5
:1006C4000C4913430B6009E00B4B1A68BB790121F9
:1006D40001FA03F3084913430B6000BF00BF0C3752
:1006E400BD465DF8047B7047303802403438024020
:1006F40038380240603802406438024080B582B025
:1007040000AF00210020FFF79FFF012200210020FD
:10071400FFF75EFD012201210020FFF759FD0022B1
:1007240000210020FFF7D0FD002201210020FFF767
:10073400CBFD002200210020FFF73CFE0022012116
:100744000020FFF737FE012200210020FFF7AEFE54
:10075400002201210020FFF7A9FE00237B60002373
:100764007B6002E07B6801337B607B680B4A9342C9
:10077400F8D9002200210020FFF798FE0122012170
:100784000020FFF793FE00237B6002E07B680133C7
:100794007B607B68014A9342F8D9D4E71FA1070024
:1007A4000D488546AFF300800C480D490D4A0023DF
:1007B40002E0D458C4500433C4188C42F9D30A4A12
:1007C4000A4C002301E013600432A242FBD300F080
:1007D40011F8FFF793FFFEE70080012000000020DE
:1007E4000000002060080008000000201C00002019
:1007F400FEE7000070B50D4D0D4C641BA4100026DF
:10080400A64209D10B4D0C4C00F018F8641BA4103F
:100814000026A64205D170BD55F8043B9847013621
:10082400EEE755F8043B98470136F2E7580800080C
:1008340058080008580800085C080008F8B500BF0C
:10084400F8BC08BC9E467047F8B500BFF8BC08BCAD
:040854009E46704705
:04085800B9010008DA
:04085C0095010008FA
:04000005080007A543
:00000001FF
