:020000040800F2
:1000000000000220E10D0008310E0008310E00084A
:10001000310E0008310E0008310E0008000000000B
:10002000000000000000000000000000310E000889
:10003000310E000800000000310E0008310E0008EB
:10004000310E0008310E0008310E0008310E000894
:10005000310E0008310E0008310E0008310E000884
:10006000310E0008310E0008310E0008310E000874
:10007000310E0008310E0008310E0008310E000864
:10008000310E0008310E0008310E0008310E000854
:10009000310E0008310E0008310E0008310E000844
:1000A000310E0008310E0008310E0008310E000834
:1000B000310E0008310E0008310E0008310E000824
:1000C000310E0008310E0008310E0008310E000814
:1000D000310E0008310E0008310E0008310E000804
:1000E000310E0008310E0008310E0008310E0008F4
:1000F000310E0008310E0008310E0008310E0008E4
:10010000310E0008310E0008310E0008310E0008D3
:10011000310E0008310E0008310E0008310E0008C3
:10012000310E0008310E0008310E0008310E0008B3
:10013000310E00080000000000000000310E000831
:10014000310E0008310E0008310E0008310E000893
:10015000310E0008310E0008310E0008310E000883
:10016000310E0008310E0008310E0008310E000873
:10017000310E0008310E0008310E000800000000AA
:1001800000000000310E0008000000000000000028
:10019000310E00080000000000000000310E0008D1
:1001A000000000000000000000000000310E000808
:1001B000310E0008310E0008310E0008310E000823
:0401C000310E0008F4
:1001C40010B5054C237833B9044B13B10448AFF38D
:1001D40000800123237010BD0000002000000000F7
:1001E4007C0E000808B5034B1BB103490348AFF369
:1001F400008008BD00000000040000207C0E000800
:1002040080B485B000AF0346FB800023FB8112E07D
:100214000023BB8104E0BB899BB201339BB2BB8149
:10022400BB899BB240F66B429342F4D9FB899BB2E3
:1002340001339BB2FB81FB899BB2FA889A42E7D8CF
:1002440000BF00BF1437BD465DF8047B7047000053
:1002540080B483B000AF0346FB710B46BB711346F9
:100264007B71FB79072B73D801A252F823F000BFEE
:1002740095020008AD020008C5020008DD0200086E
:10028400F50200080D030008250300083D030008DB
:10029400334B1B687979BA79520001FA02F211469C
:1002A4002F4A0B43136054E02E4B1B687979BA79BB
:1002B400520001FA02F211462A4A0B43136048E045
:1002C400294B1B687979BA79520001FA02F2114676
:1002D400254A0B4313603CE0244B1B687979BA79B7
:1002E400520001FA02F21146204A0B43136030E037
:1002F4001F4B1B687979BA79520001FA02F2114650
:100304001B4A0B43136024E01A4B1B687979BA79B2
:10031400520001FA02F21146164A0B43136018E028
:10032400154B1B687979BA79520001FA02F2114629
:10033400114A0B4313600CE0104B1B687979BA79AE
:10034400520001FA02F211460C4A0B43136000E01A
:1003540000BF00BF0C37BD465DF8047B704700BF8B
:10036400000002400004024000080240000C024069
:10037400001002400014024000180240001C024019
:1003840080B483B000AF0346FB710B46BB711346C8
:100394007B71FB79072B6BD801A252F823F000BFC5
:1003A400C5030008DB030008F10300080704000884
:1003B4001D04000833040008490400085F04000811
:1003C4002F4B1B687979BA7901FA02F211462C4A4B
:1003D4000B4313604DE02B4B1B687979BA7901FA12
:1003E40002F21146274A0B43136042E0264B1B6876
:1003F4007979BA7901FA02F21146234A0B43136060
:1004040037E0224B1B687979BA7901FA02F2114676
:100414001E4A0B4313602CE01D4B1B687979BA7993
:1004240001FA02F211461A4A0B43136021E0194BF8
:100434001B687979BA7901FA02F21146154A0B431D
:10044400136016E0144B1B687979BA7901FA02F249
:100454001146114A0B4313600BE0104B1B6879796A
:10046400BA7901FA02F211460C4A0B43136000E018
:1004740000BF00BF0C37BD465DF8047B704700BF6A
:10048400040002400404024004080240040C024038
:10049400041002400414024004180240041C0240E8
:1004A40080B483B000AF0346FB710B46BB711346A7
:1004B4007B71FB79072B73D801A252F823F000BF9C
:1004C400E5040008FD040008150500082D050008D2
:1004D400450500085D050008750500088D05000840
:1004E400334B1B687979BA79520001FA02F211464A
:1004F4002F4A0B43136054E02E4B1B687979BA7969
:10050400520001FA02F211462A4A0B43136048E0F2
:10051400294B1B687979BA79520001FA02F2114623
:10052400254A0B4313603CE0244B1B687979BA7964
:10053400520001FA02F21146204A0B43136030E0E4
:100544001F4B1B687979BA79520001FA02F21146FD
:100554001B4A0B43136024E01A4B1B687979BA7960
:10056400520001FA02F21146164A0B43136018E0D6
:10057400154B1B687979BA79520001FA02F21146D7
:10058400114A0B4313600CE0104B1B687979BA795C
:10059400520001FA02F211460C4A0B43136000E0C8
:1005A40000BF00BF0C37BD465DF8047B704700BF39
:1005B400080002400804024008080240080C0240F7
:1005C400081002400814024008180240081C0240A7
:1005D40080B483B000AF0346FB710B46BB71134676
:1005E4007B717B79012B67D1FB79072B00F2D280D9
:1005F40001A252F823F000BF1D06000831060008CE
:1006040045060008590600086D0600088106000822
:1006140095060008A9060008634B1A68BB790121F6
:1006240001FA03F3604913430B60B6E05F4B1A68A9
:10063400BB79012101FA03F35C4913430B60ACE07D
:100644005B4B1A68BB79012101FA03F35849134340
:100654000B60A2E0574B1A68BB79012101FA03F33E
:10066400544913430B6098E0534B1A68BB7901213A
:1006740001FA03F3504913430B608EE04F4B1A68A1
:10068400BB79012101FA03F34C4913430B6084E065
:100694004B4B1A68BB79012101FA03F34849134310
:1006A4000B607AE0474B1A68BB79012101FA03F326
:1006B400444913430B6070E0FB79072B6CD801A20B
:1006C40052F823F0E9060008FF06000815070008A1
:1006D4002B07000841070008570700086D070008AA
:1006E40083070008304B1A68BB79012101FA03F330
:1006F400DB432D4913400B604FE02C4B1A68BB7948
:10070400012101FA03F3DB43284913400B6044E061
:10071400274B1A68BB79012101FA03F3DB4324490F
:1007240013400B6039E0234B1A68BB79012101FAAD
:1007340003F3DB431F4913400B602EE01E4B1A6882
:10074400BB79012101FA03F3DB431B4913400B601E
:1007540023E01A4B1A68BB79012101FA03F3DB4346
:10076400164913400B6018E0154B1A68BB79012138
:1007740001FA03F3DB43124913400B600DE0114B04
:100784001A68BB79012101FA03F3DB430D491340D5
:100794000B6002E000BF00E000BF00BF0C37BD46A5
:1007A4005DF8047B704700BF14000240140402404B
:1007B40014080240140C02401410024014140240A5
:1007C40014180240141C024080B483B000AF0346E6
:1007D4000A46FB711346BB71FB79042B3ED801A278
:1007E40052F823F0FD070008110800082508000846
:1007F400390800084D0800081B4B1A68BB79012111
:1008040001FA03F3184913430B6027E0174B1A68E6
:10081400BB79012101FA03F3144913430B601DE072
:10082400134B1A68BB79012101FA03F310491343EE
:100834000B6013E00F4B1A68BB79012101FA03F333
:100844000C4913430B6009E00B4B1A68BB79012177
:1008540001FA03F3084913430B6000BF00BF0C37D0
:10086400BD465DF8047B704730380240343802409E
:1008740038380240603802406438024080B500AF26
:1008840000210020FFF7A0FF01210020FFF79CFFBB
:1008940000F0ABF8012200210120FFF7D9FC01226E
:1008A40001210120FFF7D4FC012202210120FFF7DE
:1008B400CFFC002200210120FFF762FD002201216C
:1008C4000120FFF75DFD002202210120FFF758FD02
:1008D400002200210120FFF7E3FD00220121012075
:1008E400FFF7DEFD002202210120FFF7D9FD0122DE
:1008F40000210120FFF76CFE002201210120FFF7F7
:1009040067FE002202210120FFF762FE00F023F8B7
:10091400002200210120FFF75BFE012201210120BA
:10092400FFF756FE002202210120FFF751FE00F0DE
:1009340012F8002200210120FFF74AFE01220221C1
:100944000120FFF745FE002201210120FFF740FEB0
:1009540000F001F8CBE780B500AF092000F0B2F851
:100964004FF47A70FFF74CFC082000F0ABF84FF41A
:100974007A70FFF745FC072000F0A4F84FF47A7072
:10098400FFF73EFC062000F09DF84FF47A70FFF765
:1009940037FC052000F096F84FF47A70FFF730FC2E
:1009A400042000F08FF84FF47A70FFF729FC03203D
:1009B40000F088F84FF47A70FFF722FC022000F070
:1009C40081F84FF47A70FFF71BFC012000F07AF8ED
:1009D4004FF47A70FFF714FC002000F073F84FF422
:1009E4007A70FFF70DFC00BF80BD80B500AF012217
:1009F40000210020FFF72CFC012201210020FFF739
:100A040027FC012202210020FFF722FC01220321FE
:100A14000020FFF71DFC012204210020FFF718FC31
:100A2400012205210020FFF713FC012206210020EA
:100A3400FFF70EFC002200210020FFF7A1FC00229A
:100A440001210020FFF79CFC002202210020FFF777
:100A540097FC002203210020FFF792FC00220421CE
:100A64000020FFF78DFC002205210020FFF788FC01
:100A7400002206210020FFF783FC00220021002031
:100A8400FFF70EFD002201210020FFF709FD0022DF
:100A940002210020FFF704FD002203210020FFF7BC
:100AA400FFFC002204210020FFF7FAFC00220521AC
:100AB4000020FFF7F5FC002206210020FFF7F0FCE0
:100AC40000BF80BD80B582B000AF0346FB71FB79E7
:100AD400092B00F27F8101A252F823F0090B0008D0
:100AE400510B0008990B0008E10B0008290C0008C1
:100AF400710C0008B90C0008010D0008490D00082C
:100B0400910D0008012200210020FFF761FD012260
:100B140001210020FFF75CFD012202210020FFF7E4
:100B240057FD012203210020FFF752FD0122042179
:100B34000020FFF74DFD012205210020FFF748FDAD
:100B4400002206210020FFF743FD43E1002200219B
:100B54000020FFF73DFD012201210020FFF738FDB1
:100B6400012202210020FFF733FD0022032100208F
:100B7400FFF72EFD002204210020FFF729FD0022AB
:100B840005210020FFF724FD002206210020FFF7A5
:100B94001FFD1FE1012200210020FFF719FD0122A2
:100BA40001210020FFF714FD002202210020FFF79D
:100BB4000FFD012203210020FFF70AFD0122042179
:100BC4000020FFF705FD002205210020FFF700FDAE
:100BD400012206210020FFF7FBFCFBE0012200219B
:100BE4000020FFF7F5FC012201210020FFF7F0FCB3
:100BF400012202210020FFF7EBFC01220321002047
:100C0400FFF7E6FC002204210020FFF7E1FC0022AC
:100C140005210020FFF7DCFC012206210020FFF75C
:100C2400D7FCD7E0002200210020FFF7D1FC0122ED
:100C340001210020FFF7CCFC012202210020FFF754
:100C4400C7FC002203210020FFF7C2FC002204217C
:100C54000020FFF7BDFC012205210020FFF7B8FCAE
:100C6400012206210020FFF7B3FCB3E0012200219A
:100C74000020FFF7ADFC002201210020FFF7A8FCB3
:100C8400012202210020FFF7A3FC012203210020FE
:100C9400FFF79EFC002204210020FFF799FC0122AB
:100CA40005210020FFF794FC012206210020FFF714
:100CB4008FFC8FE0012200210020FFF789FC002235
:100CC40001210020FFF784FC012202210020FFF70C
:100CD4007FFC012203210020FFF77AFC012204217A
:100CE4000020FFF775FC012205210020FFF770FCAE
:100CF400012206210020FFF76BFC6BE0012200219A
:100D04000020FFF765FC012201210020FFF760FCB1
:100D1400012202210020FFF75BFC002203210020B6
:100D2400FFF756FC002204210020FFF751FC0022AB
:100D340005210020FFF74CFC012206210020FFF7CB
:100D440047FC47E0012200210020FFF741FC01227B
:100D540001210020FFF73CFC012202210020FFF7C3
:100D640037FC012203210020FFF732FC0122042179
:100D74000020FFF72DFC012205210020FFF728FCAD
:100D8400012206210020FFF723FC23E00122002199
:100D94000020FFF71DFC012201210020FFF718FCB1
:100DA400012202210020FFF713FC0122032100206D
:100DB400FFF70EFC002204210020FFF709FC0122AA
:100DC40005210020FFF704FC012206210020FFF783
:100DD400FFFB00BF00BF0837BD4680BD0D488546F8
:100DE400AFF300800C480D490D4A002302E0D458AB
:100DF400C4500433C4188C42F9D30A4A0A4C002361
:100E040001E013600432A242FBD300F011F8FFF7B3
:100E140035FDFEE700000220000000200000002055
:100E24009C0E0008000000201C000020FEE70000CB
:100E340070B50D4D0D4C641BA4100026A64209D1BB
:100E44000B4D0C4C00F018F8641BA4100026A642AD
:100E540005D170BD55F8043B98470136EEE755F8C7
:100E6400043B98470136F2E7940E0008940E0008FC
:100E7400940E0008980E0008F8B500BFF8BC08BC32
:100E84009E467047F8B500BFF8BC08BC9E46704744
:040E9400E901000868
:040E9800C501000888
:0400000508000DE101
:00000001FF
